:100000000C9414040C945B040C945B040C945B043B
:100010000C945B040C945B040C945B040C945B04E4
:100020000C945B040C945B040C945E250C943226B7
:100030000C94D61F0C945B040C945B040C945B042E
:100040000C945B040C945B040C945B040C945B04B4
:100050000C945B040C942D200C945B040C945B04B6
:100060000C945B040C945B040C945B040C945B0494
:100070000C945B040C945B040C945B040C945B0484
:100080000C945B040C945B040C945B040C945B0474
:100090000C945B040C945B040C945B040C945B0464
:1000A0000C945B040C945B040C945B0400000153FF
:1000B000540055005600000024002500260057007B
:1000C00000002100220023005700A8001E001F008E
:1000D000200028002A002700270037002800000001
:1000E000015301000100010000004A0052004B00D2
:1000F00001000000500001004F00010001004D0010
:1001000051004E0001000253010049004C00010063
:1001100000000100C25CC35C01000000C55CC75C5C
:10012000C95C01000000C65CC85CCA5C0100005CE0
:1001300001000100010001000253005C0100010008
:10014000010044454255473A2064697361626C6519
:10015000642E0A0044454255473A20656E61626C40
:1001600065642E0A000A0025303862003A20002516
:10017000303258000A722F63203031323334353632
:10018000370A007267626C6967687420736574204F
:10019000687376205B4E4F454550524F4D5D3A2077
:1001A00025752C25752C25750A007267626C6967A8
:1001B00068742073657420687376205B45455052DF
:1001C0004F4D5D3A2025752C25752C25750A00723A
:1001D00067626C696768742064697361626C65202A
:1001E0005B454550524F4D5D3A207267626C6967BE
:1001F00068745F636F6E6669672E656E61626C65B9
:10020000203D2025750A007267626C69676874205A
:10021000656E61626C65205B454550524F4D5D3A9D
:10022000207267626C696768745F636F6E66696786
:100230002E656E61626C65203D2025750A0072672F
:10024000626C6967687420746F67676C65205B45D2
:100250004550524F4D5D3A207267626C6967687411
:100260005F636F6E6669672E656E61626C65203DC7
:100270002025750A007267626C69676874206D6F6B
:100280006465205B4E4F454550524F4D5D3A2025E9
:10029000750A007267626C69676874206D6F6465C7
:1002A000205B454550524F4D5D3A2025750A00723E
:1002B00067626C696768745F696E697420726762EF
:1002C0006C696768745F636F6E6669672E6D6F64D3
:1002D00065203D20302E2057726974652064656664
:1002E00061756C742076616C75657320746F204540
:1002F0004550524F4D2E0A007267626C69676874F0
:100300005F696E6974206565636F6E6669672069F1
:1003100073206E6F7420656E61626C65642E0A00D6
:100320007267626C696768745F696E697420737460
:10033000617274210A007267626C696768745F6930
:100340006E69742063616C6C65642E0A007267626A
:100350006C696768745F636F6E6669672E7370653A
:100360006564203D2025640A007267626C696768D5
:10037000745F636F6E6669672E76616C203D202521
:10038000640A007267626C696768745F636F6E66A7
:1003900069672E736174203D2025640A00726762CC
:1003A0006C696768745F636F6E6669672E687565F0
:1003B000203D2025640A007267686C696768745F75
:1003C000636F6E6669672E6D6F6465203D202564DE
:1003D0000A007267626C696768745F636F6E666952
:1003E000672E656E61626C65203D2025640A00728F
:1003F00067626C696768745F636F6E6669672045E2
:100400004550524F4D3A0A0000010101010101011E
:1004100001010202020202020202020303030303B9
:100420000303030404040404040405050505050688
:100430000606060607070707070808080809090946
:10044000090A0A0A0B0B0B0C0C0C0D0D0D0E0E0EEF
:100450000F0F0F1010111111121213131414151580
:1004600016161717181819191A1A1B1B1C1D1D1EF2
:100470001E1F202021222223242425262627282946
:10048000292A2B2C2D2D2E2F303132323334353674
:100490003738393A3B3C3D3E3F4041424344454674
:1004A0004748494A4C4D4E4F505153545556585950
:1004B0005A5B5D5E5F616264656668696B6C6D6FF7
:1004C0007072737577787A7B7D7E8082838587886A
:1004D0008A8C8E8F91939596989A9C9EA0A2A3A5A4
:1004E000A7A9ABADAFB1B3B5B7BABCBEC0C2C4C6A5
:1004F000C9CBCDCFD1D4D6D8DBDDDFE2E4E7E9EB61
:10050000EEF0F3F5F8FAFDFF6F6C65645F6F6666F9
:1005100020636D64206661696C65640A0000AE6FDB
:100520006C65645F6F6E20636D64206661696C65E5
:10053000640A0000AF6F6C65645F72656E6465721B
:1005400039302064617461206661696C65640A00F9
:100550006F6C65645F72656E64657220646174615E
:10056000206661696C65640A006F6C65645F726522
:100570006E646572206F666673657420636F6D6D5F
:10058000616E64206661696C65640A0064697370F9
:100590006C61795F736574757032206661696C6532
:1005A000640A0000DA0281FFD9F1DB20A4A62EAF95
:1005B000646973706C61795F666C697070656420E2
:1005C0006661696C65640A0000A0C06F6C65645F59
:1005D000696E697420636D64206E6F726D616C204A
:1005E000726F746174696F6E206661696C65640A0C
:1005F0000000A1C86F6C65645F696E697420636DEB
:1006000064207365742031206661696C65640A003A
:1006100000AED580A81FD300408D1420000A00250D
:1006200030325820006B6579626F6172645F726569
:10063000706F72743A20000A0025303258006B65E2
:1006400079626F6172645F7365745F6C65643A2090
:100650000064656C5F6B65795F6269743A20636101
:100660006E27742064656C3A20253032580A006188
:1006700064645F6B65795F6269743A2063616E27B9
:1006800074206164643A20253032580A005B735D3F
:10069000004B6579626F6172642073746172742EAD
:1006A0000A005B575D005B535D005B525D005B447D
:1006B0005D005B435D000403300000001403640030
:1006C000750063006B0062006F00610072006400DF
:1006D0000000140364006F006F00640062006F008C
:1006E00061007200640000000403090409025B0059
:1006F000030100A0FA09040000010301010009211F
:10070000110100012240000705810308000A0904C5
:1007100001000103000000092111010001226D0008
:100720000705820320000A090402000203000000FA
:100730000921110100012222000705830320000185
:100740000705030320000112011001000000084208
:100750004462640100010203010631FF0974A10132
:100760000975150026FF0095207508810209761588
:100770000026FF00952075089102C005010980A19F
:1007800001850319012AB700150126B700950175E7
:10079000108100C0050C0901A101850419012AA0DE
:1007A00002150126A002950175108100C0050109FE
:1007B00006A1018505050719E029E7150025019522
:1007C00008750181020507190029EF15002501951B
:1007D000F07501810205081901290595057501913A
:1007E00002950175039101C005010906A1010507E4
:1007F00019E029E715002501950875018102950189
:10080000750881010507190029FF150026FF0095CD
:1008100006750881000508190129059505750191DE
:1008200002950175039101C011241FBECFEFDAE0DC
:10083000DEBFCDBF04B603FE27C08091D1049091E6
:10084000D204A091D304B091D4048730904BA74038
:10085000B04BD1F41092D1041092D2041092D30470
:100860001092D40414BE84B7877F84BF0FB6F89467
:10087000A89580916000886180936000109260006C
:100880000FBEE0E0F8E3099511E0A0E0B1E0EEE191
:10089000F1E502C005900D92AE3AB107D9F724E018
:1008A000AEEAB1E001C01D92A13DB207E1F70E949E
:1008B00093220C9451280C940000FF93EF93E09145
:1008C000AE01F091AF01309709F00995EF91FF91DA
:1008D0000895FC018591803011F0EFDFFBCF089582
:1008E000FF27E0E230E247FF0CC0419597FF09C0C7
:1008F000EDE26095709580959095611D711D811D4B
:10090000911D27FF02C0219530E350E2AA27660F10
:10091000771F881F991FAA1FA41710F0A41B6395A7
:100920005A95A9F7AA3008F0A95FA05DAF93F39597
:10093000611571058105910541F7ED3211F4EF93D1
:10094000F395F21718F43F93F395FBCF8F91B5DF32
:10095000FA95E1F70895E991F9918591803021F0B8
:10096000853219F0AADFF9CF089520E0E894559177
:100970005532C1F3503311F4689455915A3348F409
:10098000505390F3220F022E220F220F200D250F1D
:10099000F4CF0EF4219589919991533619F3533779
:1009A00029F1533559F1BC0188279927E8945C3621
:1009B00021F48991999168945591543639F446EF10
:1009C0007EF077FF0DC08FEF9FEF0AC055374AE0EA
:1009D00039F0583540E121F0523642E009F00895EF
:1009E000FF93EF937DDFEF91FF91B7CFFF93EF93ED
:1009F000FC0181918030B9F360DFFBCFFF93EF936F
:100A000068DFF1CFDF93CF93CDB7DEB72596A3DFB5
:100A1000CF91DF91089581E0089581E008950C94CD
:100A20000D0508950C9411051F93CF93DF9300D00B
:100A300000D00F92CDB7DEB749835A836B833091D4
:100A4000F00189819A8131111DC06623B9F02223FA
:100A5000A9F00E949F1C182F682F89819A810E94FB
:100A6000481C69817A81812F0F900F900F900F9011
:100A70000F90DF91CF911F910C94E0050E94761C9E
:100A8000182FEFCF0E949F1C69817A81EDCFFC0166
:100A9000262F408151816281738184810C941405D9
:100AA000CF93DF93EC0160E00E944705BE01DF9128
:100AB000CF910C9412050E94001E811102C00E9469
:100AC0009D1E0C94E3070C94E60708950C946505AD
:100AD00081E008950C946805CF93C82F0E946605A5
:100AE0008C2FCF910C946A0508950E94AF170E9435
:100AF00074052FEF84E39CE0215080409040E1F7A3
:100B000000C000000C9451200F931F93CF93DF93EC
:100B1000EC0161E00E9447058C01BE010E940F05B7
:100B2000882341F1BE01C8010E947C10882311F185
:100B3000BE01C8010E94CE108823E1F0BE01C801A9
:100B40000E94F1118823B1F0BE01C8010E94E80C97
:100B5000882381F08A81882341F101308CE51807D0
:100B600079F00E3D8CE51807E9F001151C45E9F414
:100B70000E94750580E0DF91CF911F910F9108953C
:100B800090916A02892F8E7F90FF816080936A0224
:100B900080FF05C084E591E00E946904EBCF82E408
:100BA00091E0FACF0E949D1EE5CFCE01DF91CF915B
:100BB0001F910F910C940B0590E080E0089508952B
:100BC000972F70E025E0929F600D711D1124FB01AD
:100BD00099E1899FE00DF11D1124EE0FFF1FE455EF
:100BE000FF4F859194910895FC01EE0FFF1FEB5983
:100BF000FE4F859194910895CF93DF930E94E00575
:100C00000E940807EC01811520E5920708F041C019
:100C1000811530E4930708F0B4C0803E910518F5C3
:100C2000803C910508F09DC0883A910570F4853AA2
:100C3000910508F08EC081309105F9F00097E9F038
:100C40000497D8F4D0E0C0E018C08F3B9105D0F7EE
:100C5000C85AD0E0CC0FDD1FC75EDE4F0990D881A7
:100C6000C02DD4640AC08115904258F4C11581E0AA
:100C7000D80718F4C83ED10528F7CE01DF91CF91EF
:100C80000895C11590E3D90708F071C0CE019F7097
:100C90006AC0811525E5920758F5811534E593075B
:100CA00008F09EC0811542E5940750F4C11581E516
:100CB000D80708F469C0DC2FCC27C16FD06ADDCF1C
:100CC000982F969596959E0123703327C115D3458D
:100CD00008F077C0C1E0D0E002C0CC0FDD1F2A953C
:100CE000E2F720E2929FC0011124C82BD92B67C0E4
:100CF000C11589E5D807A8F4C11598E5D90708F00A
:100D000074C0C11526E5D20708F09CCF8C2F0E9435
:100D10009F07C82FD0E0DC2FCC27CC27DF71D06213
:100D2000ACCFC1153AE5D30708F464C0CE019056A4
:100D30008115904208F086CF8D2F8F710E949F07FA
:100D400090E0982F882788279F719C012C2BE90120
:100D5000E6CFC55AD0E0C95BDE4FC881D0E0D06491
:100D60008CCF805C91090E94F405EC0186CFCE0106
:100D70009927D3FF03C0EC01D86C7FCFEC01D06C76
:100D80007CCFDF70D06A79CFCE01E4E0969587956D
:100D9000EA95E1F783702C2F26952695237090E233
:100DA000299F90011124382B8C2F8370C1E0D0E053
:100DB00002C0CC0FDD1F8A95E2F7C22BD32BDC6873
:100DC0005CCFC1E0D0E002C0CC0FDD1F2A95E2F776
:100DD00030E2939FC0011124C82BD92BDA684DCF84
:100DE000D82FCC27C46FD06A48CFDC2FCC27C06F58
:100DF000D06A43CF8C2F8F700E949F0734E0D69526
:100E0000C7953A95E1F7CF709C2FEC01D06935CFAB
:100E100082389105B1F1B0F48133910509F475C0C0
:100E200048F48932910509F469C08A32910509F4C0
:100E300073C008958533910509F459C0893391052C
:100E400001F10895833E9105A9F138F4803E9105A2
:100E5000F9F0823E910549F10895863E9105A9F188
:100E6000873E9105C9F1843E910519F52091C3048F
:100E700021FF1FC08091C20484FD14C087EE90E062
:100E800008952091C2042370A1F080EE90E00895AF
:100E90002091C20420FD47C03091C30430FF09C037
:100EA00024FF44C090E080E004C02091C20422FDF1
:100EB000F7CF08952091C20422FD3BC03091C304B6
:100EC00030FDE3CF24FFF5CFEDCF2091C20423FF07
:100ED000F0CF24FDE7CFD2CF2091C20423FD2CC058
:100EE0003091C30431FFEECF84EE90E0089520915D
:100EF000C20425FFDECF89E290E008952091C2046C
:100F000025FFD7CF85E390E008952091C20426FF06
:100F1000D0CF8AE290E008952091C20426FFC9CF85
:100F200081E390E0089589E390E0089583EE90E0F6
:100F3000089582EE90E0089586EE90E008959091F5
:100F4000C20492FF06C0282F28712830F9F4877F49
:100F5000846093FF06C0282F28712831F1F4877E22
:100F600084612091C30420FF06C0382F38713830C7
:100F7000D9F4877F816021FF06C0282F287128318E
:100F8000D1F4877E816194FD877E0895282F247196
:100F90002430F9F68B7F8860DCCF282F2471243130
:100FA00001F78B7E8861DDCF382F3171313019F731
:100FB0008E7F8860E0CF282F2171213121F78E7E2E
:100FC0008861E1CF08950C94E20708950C94E50739
:100FD000E82FF0E0EA56FD4F80810895CF92DF922E
:100FE000EF92FF920F931F93CF93DF9384E791E0EB
:100FF0000E94690486E9E82E82E0F82ED0E0C0E085
:101000009FE6C92E91E0D92E07E611E0DF93CF933A
:10101000DF92CF920E9402058CE691E00E94690463
:10102000F70181917F010E94E81D1F928F931F930A
:101030000F930E94020585E691E00E9469042196C3
:101040008DB79EB708960FB6F8949EBF0FBE8DBFA2
:10105000C530D105D9F6DF91CF911F910F91FF9047
:10106000EF90DF90CF90089580EA8A95F1F7089588
:10107000CF93DF93AFE4B1E044E551E0C1E0D0E0CD
:101080008D91E82FE295EF70F0E061A18F709E01E5
:1010900001C0220F8A95EAF7922F9095962391A38B
:1010A00082A1822B82A34A175B0751F7AAE4B1E021
:1010B00061E070E08D91E82FE295EF70F0E041A1E2
:1010C0008F709B0101C0220F8A95EAF7922F9095AD
:1010D000942391A382A1822B82A381E0AF34B8072D
:1010E00049F7109291021092960210929202109279
:1010F000970210929302109298021092940210920A
:1011000099021092950210929A0285E00E940C09B1
:10111000DF91CF910C945B058F929F92AF92BF921B
:10112000CF92DF92EF92FF920F931F93CF93DF93B3
:101130008FE4A82E81E0B82E01E912E0912CCC2496
:10114000C394D12CF50181915F01C82FC295CF7056
:10115000D0E099A18F70760101C0EE0C8A95EAF774
:10116000892F8E2989A38AA18E2C809488218AA315
:101170000E943408EAE4F1E050E040E020E03191E0
:10118000A32FA295AF70B0E090968C9190E03F7045
:1011900002C0959587953A95E2F780FD39C08C2D70
:1011A000042E01C0880F0A94EAF7282B4F5F5F4F87
:1011B0004530510521F789A1882289A28AA1E82A10
:1011C000EAA2F8018081281729F1208381E0982A7A
:1011D0000F5F1F4FF4E5AF16F1E0BF0609F0B2CF85
:1011E000292D45E066E972E081E992E00E940D094F
:1011F0000E946305892DDF91CF911F910F91FF9080
:10120000EF90DF90CF90BF90AF909F908F90089518
:1012100080E0CBCF80E0DBCF0895FF920F931F9348
:10122000CF93DF93F82E092F162FD72FC42F222309
:1012300049F081E08093B2010E9406209093B101B1
:101240008093B0018091B2018823A1F08091B00118
:101250009091B1010E941E20069760F0EF2DF02FB3
:10126000A12FBD2FCE0FDF2FD11DEC17FD0741F4AD
:101270001092B201DF91CF911F910F91FF900895CD
:1012800081918D93F2CFEF92FF920F931F93CF93A3
:10129000DF93EB01E82FD11110C0442321F0F0E0DF
:1012A000E85FFB4FE4916E2F7E2F8E2FDF91CF9161
:1012B0001F910F91FF90EF9008950D2F10E0282FB0
:1012C00030E0442329F0285F3B4FF901249130E0BE
:1012D000F6E0CF9FC0011124EFEFF0E0BF010E94C4
:1012E000EF27AB018C2F90E0880F991FA5E5A49FF5
:1012F000B001A59F700D1124861B970B982F990F95
:10130000980FBF01601B710B629FD001639FB00DEE
:10131000729FB00D11248B2F9D9FB0011124672F58
:101320007727EF01C61BD70BBE01629FE001639FC9
:10133000D00D729FD00D11247F01E91AF108E09EB3
:10134000B001E19E700DF09E700D1124672F77277C
:10135000E61BF70BE29F8001E39F100DF29F100D3B
:101360001124E12F722F4230510599F048F44115B4
:10137000510569F04130510581F0EB2F8D2F07C0E9
:101380004430510569F080F046305105B1F76E2FB9
:101390008DCFE22F7B2F812FFACFE22F7D2FF7CF3A
:1013A000EB2F822F712FF3CF7B2F822FED2FEFCFDB
:1013B00041E00C944309CF93DF93762FE901682F26
:1013C000842F0E94D809798368838A83DF91CF9123
:1013D000089580919B02982F9E7F39F480919B0203
:1013E0008170826080939B0208958430B8F70895DD
:1013F00088E090E00C941128CF92DF92EF92FF9258
:101400006B017C010E94E909B701A60188E090E028
:10141000FF90EF90DF90CF900C942F28EBE9F2E053
:1014200083E0808311828FEF8283838314826081C3
:101430007181828193810C94FC0980916A0280FF02
:1014400076C08FEE93E09F938F930E940205809168
:101450006A020F900F9080FF6AC080919B0281709A
:101460001F928F9382ED93E09F938F930E940205CA
:1014700080916A020F900F900F900F9080FF57C0DD
:1014800080919B0286951F928F9387EB93E09F93A9
:101490008F930E94020580916A020F900F900F9027
:1014A0000F9080FF44C080919C021F928F938DE922
:1014B00093E09F938F930E94020580916A020F90A0
:1014C0000F900F900F9080FF32C080919D021F926D
:1014D0008F9383E893E09F938F930E9402058091FE
:1014E0006A020F900F900F900F9080FF20C08091A4
:1014F0009E021F928F9389E693E09F938F930E94A1
:10150000020580916A020F900F900F900F9080FF5C
:101510000EC080919F021F928F938DE493E09F9362
:101520008F930E9402050F900F900F900F900895D7
:1015300090919F02933018F49F5F90939F028823AD
:1015400051F060919B0270919C0280919D0290915C
:101550009E020C94FC09089581E00C94980A9091E5
:101560009F02992319F0915090939F02882351F084
:1015700060919B0270919C0280919D0290919E02CD
:101580000C94FC09089581E00C94AF0A70E00C946F
:10159000400D6091010180919B0280FF0AC0809103
:1015A000000123E0829FC001112480569D4F0C94BE
:1015B000C60A809102019091030123E0829FF0010D
:1015C0001124E056FD4F891750F7118210821282C4
:1015D0008F5F3396F8CF80919B028E7F80939B0222
:1015E00060919B0270919C0280919D0290919E025D
:1015F0000E94FC0980916A0280FF0FC080919B02CB
:1016000081701F928F938FEC91E09F938F930E9434
:1016100002050F900F900F900F902FEF80E792E050
:10162000215080409040E1F700C000000C94C90AAE
:1016300090919B0290FF14C09091020120910301B0
:1016400033E0939FF0011124E056FD4F921710F004
:101650000C94C90A8183608342839F5F3396F6CFDF
:101660000895EF92FF920F931F93CF93DF9300D0D3
:101670000F92CDB7DEB7182F062FF42EE22E8091F1
:101680009B0280FF43C0E82FE695F0E0EC5AFE4F46
:1016900090819093B4018E7F823059F49E012F5F28
:1016A0003F4F812F0E94DB094B8169818A810E9413
:1016B000180B10939C0200939D02F0929E02EE2064
:1016C00079F160919B0270919C0280919D029091B2
:1016D0009E020E94FC0980916A0280FF17C08091DF
:1016E0009E021F928F9380919D021F928F938091F3
:1016F0009C021F928F938AEA91E09F938F930E949E
:1017000002050FB6F894DEBF0FBECDBF0F900F904D
:101710000F90DF91CF911F910F91FF90EF9008955F
:1017200080916A0280FFF2CF1F92FF921F920F9367
:101730001F921F9383E891E0E0CFEBE9F2E0918103
:10174000282F4381628188E0890F0C94310B81E05E
:101750000C949D0BEBE9F2E09181282F438162818B
:1017600088EF890F0C94310B81E00C94AA0BEBE904
:10177000F2E0628121E1620F08F46FEF282F4381CC
:1017800081810C94310B81E00C94B70BEBE9F2E012
:10179000628121E1621B08F460E0282F438181818E
:1017A0000C94310B81E00C94C60BEBE9F2E0438121
:1017B00021E1420F08F44FEF282F628181810C94C0
:1017C000310B81E00C94D50BEBE9F2E0438121E190
:1017D000421B08F440E0282F628181810C94310B78
:1017E00081E00C94E40B20E00C94310B80919B027F
:1017F00080FF35C08170826080939B02662329F14F
:1018000060919B0270919C0280919D0290919E023A
:101810000E94FC0980916A0280FF0FC080919B02A8
:1018200086951F928F9383E992E09F938F930E94F6
:1018300002050F900F900F900F9040919E026091C3
:101840009D0280919C020C94F30B80916A0280FFB0
:10185000F4CF1F9281E08F9385E792E0E6CF089561
:10186000682F81E00C94F60B81E00C94300C682F0B
:1018700090919B0296958FEF890F09F481E00C946B
:10188000F60B81E00C94370C61E00C94F60B809120
:101890009B02816080939B0280916A0280FF0DC051
:1018A0001F9281E08F9387E092E09F938F930E9435
:1018B00002050F900F900F900F9080919B028695DC
:1018C0000C94440C80916A0280FF10C080919B02AE
:1018D000809581701F928F938EE392E09F938F93F8
:1018E0000E9402050F900F900F900F9080919B0225
:1018F00080FD0C94EB0A0C94470C60E00C94F60B02
:101900008091B30181115EC080916A0280FF14C092
:1019100086E393E09F938F930E94020580916A0271
:101920000F900F9080FF08C080E293E09F938F9309
:101930000E9402050F900F900E94001E811110C09E
:1019400080916A0280FF08C088EF92E09F938F9396
:101950000E9402050F900F900E949D1E0E940E0A89
:101960000E94F80960939B0270939C0280939D02F1
:1019700090939E026E7FC1F480916A0280FF08C03E
:101980008FEA92E09F938F930E9402050F900F9031
:101990000E940E0A0E94F80960939B0270939C02B9
:1019A00080939D0290939E020E94E9090E941D0A65
:1019B00080919B0280FF03C086950E947D0C81E090
:1019C0008093B3010895FA01811101C0FB010994CC
:1019D0000F931F93CF938C01FB01C281CC2309F499
:1019E0004DC00E94341D8272F801E25CFC45E43176
:1019F000F10538F4ED5AF74D0C9403280E94620C5F
:101A0000C0E08C2FCF911F910F91089541E45CE0CD
:101A100064E37CE00E94E30CF3CF44E35CE061E428
:101A20007CE0F8CF44EB5BE067EA7BE0F3CF47EA8A
:101A30005BE064EB7BE0EECF42ED5BE063EC7BE0F0
:101A4000E9CF43EC5BE062ED7BE0E4CF40EF5BE0AD
:101A500061EE7BE0DFCF41EE5BE060EF7BE0DACF71
:101A600043EC5AE06CEA7AE0D5CF4CEA5AE063ECFA
:101A70007AE0D0CF81E00E94440CC2CFC1E0C1CF58
:101A8000539A4BB1477F5BB15860EFB7F8949B0115
:101A9000220F331F260F371F280F391F281739072A
:101AA00041F4EFBF8FE594E00197F1F700C000002B
:101AB0000895DC016D91CD0178E05BB9000000C0B4
:101AC00067FF4BB9660F000000C000C000C04BB9F3
:101AD00000C07A9591F7E2CF08950C946C0D86982A
:101AE0008E9A85988D9A8FB186FB882780F97D998B
:101AF00005C090E0892B8093B801089592E0FACF59
:101B0000E091B801EE0FEE0FE093B8014FB146FB44
:101B1000882780F94FB145FB222720F945FF02C0F5
:101B200022E030E0822BE82BE093B801EF70F0E088
:101B3000EA5AFE4F80819091B701890F8093B701D7
:101B400082304CF08091B6018F5F8093B60160E0E7
:101B500080E00E946D0D8091B7018F3F4CF4809121
:101B6000B60181508093B60161E080E00E946D0D66
:101B70008091B701817887FF03C081508E6F8F5F9E
:101B80008093B7010895CF92DF92EF92FF920F9367
:101B90001F93CF93DF936C017B0164E670E088E7CD
:101BA0000E942112EC0197FD12C010E000E0F60146
:101BB000E00FF11F849164E670E00E947D12EC0159
:101BC000892B29F40F5F1F4F0E151F0581F70E9407
:101BD0000013CE01DF91CF911F910F91FF90EF90F5
:101BE000DF90CF9008950895E8EBF2E080E092E076
:101BF000DF019C011D9221503040E1F7F093BD04BC
:101C0000E093BC048FEF9FEF9093DF018093DE01A0
:101C100008950E94F30D8093DA0180FD13C080E8DF
:101C20008093D9010E941B126DE070E080E196E084
:101C30000E94C30D892B41F084EF95E00E94690456
:101C400080E0089580E2ECCF8091DA0163E070E0FB
:101C500081FD09C081EF95E00E94C30D892B61F0E1
:101C60008BEC95E0EBCF88EC95E00E94C30D892BBF
:101C700019F080EB95E0E2CF6DE070E083EA95E04B
:101C80000E94C30D892B19F08CE895E0D7CF0E94F4
:101C90001220605A75418F4F9F4F6093B804709324
:101CA000B9048093BA049093BB040E94F40D81E0C0
:101CB0008093DD018093DC011092DB010895209177
:101CC000D90136E0839FC0011124629F800D911DD0
:101CD0001124811522E0920714F090E080E08854EE
:101CE0009D4F9093BD048093BC0408950E941220E0
:101CF000605A75418F4F9F4F6093B8047093B90439
:101D00008093BA049093BB048091DC0181110CC0D4
:101D100062E070E083E395E00E94C30D892B39F007
:101D20008FE195E00E9469048091DC01089581E0D3
:101D30008093DC01F9CF2F923F925F926F927F9256
:101D40008F929F92AF92BF92CF92DF92EF92FF92CB
:101D50000F931F93CF93DF932091DE013091DF012A
:101D60002115310531F08091DB0161E070E08823BD
:101D700099F0DF91CF911F910F91FF90EF90DF903D
:101D8000CF90BF90AF909F908F907F906F905F901B
:101D90003F902F9008958F5F082F10E01B01082EB1
:101DA00002C0220C331C0A94E2F7A90142215321FC
:101DB000452B89F39091DA0190FD31C08295880F0F
:101DC000807680930701980136952795369527955B
:101DD00020930A01815E8093080110920B0124E692
:101DE00030E047E050E065E071E088E70E94AC1227
:101DF000892B19F189E695E0DF91CF911F910F9121
:101E0000FF90EF90DF90CF90BF90AF909F908F901A
:101E10007F906F905F903F902F900C946904880F93
:101E2000880F880F8093070110920A01895F8093C1
:101E3000080183E080930B01D2CFA80125E0440F75
:101E4000551F2A95E1F78091DA0180FD10C04854B2
:101E50005D4F04E610E020E230E060E488E70E9495
:101E6000D312892B09F469C080E595E0C5CFE9EB71
:101E7000F1E080E2DF011D928A95E9F7AAE6B1E080
:101E800006E611E08EE6C82E81E0D82E97E0592EA6
:101E9000772473948D91E80129918E01240F352FB9
:101EA000311D28543D4FE82FF0E0E754FE4F90E0FD
:101EB00080E0652C681A872C082E01C0880C0A94D3
:101EC000EAF77901A12CE701B9907E01B820662DCF
:101ED0006A196770962E062E000C770BDB2D01C059
:101EE000DD0F9A94EAF7719561957109677077270C
:101EF00001C0B6946A95EAF7BD2A6081962E9B28A8
:101F00009082A39468E0A612DECF019631968830C5
:101F1000910579F6CA16DB0609F0BCCF04E610E09D
:101F200020E230E049EB51E060E488E70E94D31200
:101F3000892B19F085E395E05FCF0E94760EE101D1
:101F4000C095D0958091DE019091DF01C823D923FF
:101F5000D093DF01C093DE010CCF8091DC01882398
:101F600089F062E070E08DE195E00E94C30D892B5D
:101F700039F088E095E00E9469048091DC010895C1
:101F80001092DC018091DC0191E089270895089589
:101F90000F931F938091DD01882301F160E080E0C1
:101FA0000E945F0E0E94C70F0E949B0E8091DC0171
:101FB0008823A1F00E9412200091B8041091B90466
:101FC0002091BA043091BB04601B710B820B930B00
:101FD00097FD04C01F910F910C94AD0F1F910F91AD
:101FE0000895AF92BF92CF92DF92EF92FF920F933C
:101FF0001F93CF93DF937C015B01C42FD22FFC0191
:1020000082818823F9F04093E2010E940620909398
:10201000E1018093E00180E28C0F883008F061C01C
:10202000C77081E001C0880FCA95EAF7DF91CF91B0
:102030001F910F91FF90EF90DF90CF90BF90AF90E6
:102040000C9444151091E201141340C08091E001FA
:102050009091E1010E941E206C01B701C5010E9410
:10206000251AC816D90690F5C0E2CD0F1D17B9F094
:1020700080E2810F883040F4177081E001C0880F42
:102080001A95EAF70E944B15C83048F481E09D2F5D
:10209000977001C0880F9A95EAF70E944415802F27
:1020A0000E942915C830E8F4D77081E001C0880F7C
:1020B000DA95EAF7DF91CF911F910F91FF90EF90A2
:1020C000DF90CF90BF90AF900C944B1580E28C0FB7
:1020D000883038F4C77081E001C0880FCA95EAF7EC
:1020E000E9CFDF91CF911F910F91FF90EF90DF909B
:1020F000CF90BF90AF9008950F939C01CB01233FE9
:102100004CE5340759F1A8F4283DFCE53F0701F1FF
:10211000293D4CE53407D1F1273D3C4591F406E2D9
:1021200021EE41EE67ED7CE50E94F10F80E00F911A
:102130000895253FFCE53F07E9F0B0F0263F3C4518
:10214000F9F0FC018281882339F11092E201EFCF8E
:1021500007E225EE45EE68ED7CE5E6CF06E221EEEE
:1021600040EE63EF7CE5E0CF07E225EE44EE64EF5E
:102170007CE5DACF06E221EE42EE65EF7CE5D4CFD6
:1021800007E225EE46EE66EF7CE5CECF08E221E0E1
:1021900045EE69ED7CE5C8CF81E0C9CFCF93DF93F1
:1021A000EC01FB018281882309F419C1C230FCE5EE
:1021B000DF07C0F1C6319CE5D90730F09E012A5FE8
:1021C0003C452930310570F50E94131E9093C304DD
:1021D0008093C204C031ECE5DE0709F4CFC008F0FB
:1021E0005BC0C8308CE5D80709F4B6C088F5C430A8
:1021F000ECE5DE0709F4A8C0C0F4C2308CE5D807CE
:1022000009F49CC08091C2048260C330DC4509F4AB
:1022100098C08091C2049091C3040E94211E0E9424
:10222000AF1780E0DF91CF9108958091C204806163
:10223000C630ECE5DE0709F484C08091C2048860F2
:10224000C730DC4508F47DC08091C204806279C04B
:10225000CC308CE5D80709F489C070F48091C204B1
:102260008C60CA30ECE5DE0709F46BC008F478C076
:102270008091C2048E7F65C0CE308CE5D80709F40A
:1022800079C08091C2048B7FCF30DC4508F459C0FF
:102290008091C2048F7E55C0CB3FECE5DE0709F488
:1022A00057C030F5C3318CE5D80709F46FC078F416
:1022B000C131ECE5DE0709F465C0C231DC4509F047
:1022C000A8CF0E94AF178091C2048F773AC0C53162
:1022D0008CE5D80709F462C008F476C08091C30485
:1022E0008160CA3FDC4509F094CF8093C30491CF4D
:1022F000CF3FFCE5DF0709F44DC088F48091C304AB
:102300008D7FCD3F9CE5D90781F38091C3048E7FFB
:10231000CE3FDC4550F38091C3048360E6CFC130EB
:10232000FDE5DF0709F459C008F444C080E0C2307D
:10233000DD4509F06ECF0E949F1E6BCF8091C204D5
:1023400081608093C20465CF8091C2048460F9CF1C
:102350008091C3048260C9CF8091C2048064F1CFB0
:102360000E94AF178091C2048068EBCF8091C204B5
:102370008D7FE7CF8091C204877FE3CF8091C20435
:102380008F7DDFCF8091C2048F7BDBCF8091C20431
:10239000837FD7CF8091C3048C7FA7CF8091C20465
:1023A00082FB992790F921E0922790FB82F990FB1C
:1023B00083F9C7CF8091C304982F909591708E7F39
:1023C000892B90FB81F991CF0E94AF179091C204A5
:1023D000892F97FB87F98058B4CF81E0ACCF81E09B
:1023E00021CFCF93DF93EB0186319C4511F50E94FD
:1023F000341D9A81992399F08A7A91E009F490E04A
:102400009093E301811109C089E20E940F1D0E948F
:10241000801D80E0DF91CF91089585E3F6CF809114
:10242000E301811104C089E20E94161DF0CF85E30B
:10243000FBCF81E0EFCF1092B9008CE08093B80021
:102440000895EF92FF920F931F93CF93DF93182F6E
:10245000EB011092BC0084EA8093BC000E9406202D
:102460007C018091BC0087FF27C08091B900887FE4
:10247000883029F08091B900887F8031D9F5109398
:10248000BB0084E88093BC000E9406208C018091F0
:10249000BC0087FF24C02091B900287F90E080E035
:1024A0002831B1F081E090E0203411F490E080E038
:1024B0009195819591090CC0CF3FDC0791F20E9464
:1024C00006208E199F098C179D0758F28EEF9FEFFB
:1024D000DF91CF911F910F91FF90EF900895CF3F23
:1024E000DC07A9F20E940620801B910B8C179D0728
:1024F00070F2ECCF8FEF9FEFEBCF0F931F93CF9343
:10250000DF93EB018093BB0084E88093BC000E94C2
:1025100006208C018091BC0087FF11C02091B9007A
:10252000287F81E090E0283211F490E080E09195DE
:1025300081959109DF91CF911F910F910895CF3F20
:10254000DC0741F30E940620801B910B8C179D072E
:1025500008F38EEF9FEFEECFCF92DF92EF92FF92D4
:102560000F931F93CF93DF936B018A017901B90118
:102570000E942112E6010C0D1D1DC017D10761F448
:1025800024E92093BC00DF91CF911F910F91FF9020
:10259000EF90DF90CF90089597FDF2CFB70189912A
:1025A0000E947D12EACFCF92DF92EF92FF920F93BB
:1025B0001F93CF93DF93C62F6A017901B8010E9460
:1025C000211297FD0CC0B8018C2F0E947D12E601EC
:1025D000EC0CFD1CCE15DF0511F097FF0CC024E9B3
:1025E0002093BC00DF91CF911F910F91FF90EF904E
:1025F000DF90CF900895B80189910E947D12EACFB3
:1026000084E98093BC0008959093E9018093E801E8
:102610000895E091E801F091E901309721F00190EF
:10262000F081E02D099480E00895EF92FF920F93DE
:102630001F93CF93DF93EC01E091E801F091E90162
:10264000309709F446C080911801882341F08091A9
:10265000C20487FF04C08881898385E08883028063
:10266000F381E02DCE01099580916A0282FF31C08D
:1026700080FF04C085E296E00E94690410E000E05B
:102680008FE1E82E86E0F82E80916A0280FF0EC06E
:10269000FE01E00FF11F80811F928F93FF92EF9256
:1026A0000E9402050F900F900F900F900F5F1F4F29
:1026B0000830110549F780916A0280FF0AC08DE158
:1026C00096E0DF91CF911F910F91FF90EF900C94C6
:1026D0006904DF91CF911F910F91FF90EF900895C2
:1026E0002091E6013091E7012817390771F09093A6
:1026F000E7018093E601E091E801F091E90130976C
:1027000021F00680F781E02D099408952091E401DD
:102710003091E5012817390771F09093E501809316
:10272000E401E091E801F091E901309721F00084A3
:10273000F185E02D0994089585B7806885BF85B738
:10274000806885BF0895089508950C94A313089593
:102750000C94A7130E949C130E94A4130C94A5131D
:1027600081E008950C94B0130E94FD1F0E94380868
:1027700080E00E94090E0E9462200E94800C0E944C
:102780006F0D0C94A813CF93C82F80916A0282FF1B
:102790001EC080FF1CC08EE396E00E9469048091F9
:1027A0006A0280FF14C01F92CF9389E396E09F9343
:1027B0008F930E94020580916A020F900F900F90F4
:1027C0000F9080FF04C087E396E00E9469048C2F7D
:1027D000CF910C946C05AF92BF92CF92DF92EF92A3
:1027E000FF920F931F93CF93DF93CDB7DEB72A9756
:1027F0000FB6F894DEBF0FBECDBF0E948C08B82E76
:102800000E94B213882309F465C08BEEC82E81E0C4
:10281000D82E10E000E0A02E802F0E94E807E82EBE
:10282000F601F1906F01F81609F44EC080916A022A
:1028300081FD0E94EE079F2D9E2580E0FF24F394EA
:10284000292F2F21E1F18E83AF82EF2081E009F45F
:1028500080E088870E9406208160782F9A87898788
:102860004E815F8168858A850E948C14F801E5514C
:10287000FE4F8081F826F0820E94800D0E94C80FD2
:10288000B1100E94760E0E9409139091EA018917F7
:1028900091F10E9409138093EA012A960FB6F894E9
:1028A000DEBF0FBECDBFDF91CF911F910F91FF9083
:1028B000EF90DF90CF90BF90AF900C94C3138F5FD9
:1028C000FF0C853009F0BCCF0F5F1F4F053011059D
:1028D00009F0A1CF8FEF89838A831B820E94062093
:1028E0008160782F9D838C8349815A816B818D8192
:1028F0000E948C14C1CF2A960FB6F894DEBF0FBE8B
:10290000CDBFDF91CF911F910F91FF90EF90DF909E
:10291000CF90BF90AF900895CF93DF93CDB7DEB740
:102920002B970FB6F894DEBF0FBECDBF4F835887ED
:1029300069877A878B871E821D8285E0FE01379624
:10294000DE01119601900D928A95E1F749815A8135
:102950006B817C818D819E812B960FB6F894DEBFB2
:102960000FBECDBFDF91CF910C94281AFC0180815E
:1029700091810C94E11CCF93C82F882309F43FC0A8
:102980008CEF8C0F813AA0F46C2F80910C01909108
:102990000D010E94B81E882329F08C2F0E94161D5D
:1029A0000E94801D8C2F0E940F1DCF910C94801DC2
:1029B00080E28C0F883048F4C77081E001C0880F36
:1029C000CA95EAF70E94371DF0CFEBE5EC0FE33034
:1029D00040F4F0E0E456FE4F808190E0CF910C94FB
:1029E0007013C85AC73158F4EC2FF0E0EE0FFF1FF8
:1029F000E259FE4F80819181CF910C948613CF9143
:102A00000895882329F19CEF980F913A20F40E94B1
:102A1000161D0C94801D90E2980F983050F487702A
:102A200091E001C0990F8A95EAF7892F0E943D1D18
:102A3000F0CF9BE5980F933020F490E080E00C9469
:102A40007013885A873120F490E080E00C9486134C
:102A50000895CF93C82F0E94BB14C93369F42FEF98
:102A600087EE93E0215080409040E1F700C00000E5
:102A70008C2FCF910C9401152FEF89EF90E021500E
:102A800080409040E1F7F2CF882321F00E94371D6B
:102A90000C94801D0895882321F00E943D1D0C9404
:102AA000801D0895BF92CF92DF92EF92FF920F9315
:102AB0001F93CF93DF936C01D62FC72FFC010581A5
:102AC00002950F70128111110E94541D0E942D1D3C
:102AD000E82E882391F01123D1F08C2F807F803451
:102AE00021F080E28D0F883090F082E00E94CB1DB3
:102AF0000E942D1D91E0E82EE926BC2EB2949FE0A5
:102B0000B922EB2DF0E0E959F74D0C940328E12CA4
:102B1000F4CF0C2F0F70C07F11F00295007F1123AE
:102B2000A9F0002359F080E28D0F883010F0D11108
:102B300009C0802F0E94371D0E94801D8D2F0E948A
:102B4000BB1414C0802F0E94471DF6CF8D2F0E940A
:102B50000115002359F080E28D0F883010F0D1115B
:102B60002CC0802F0E943D1D0E94801D2B2D2850BF
:102B7000330B2430310520F40E9409130E946C05A8
:102B8000EE2009F491C10E94291D80FD8DC1F6013E
:102B900012820E94231D0E94AC1BC6010E94751761
:102BA0000E94231DDF91CF911F910F91FF90EF9015
:102BB000DF90CF90BF900C94CD1B802F0E944D1DB5
:102BC000D3CFFC2FFF70FF2EC07FC03219F0F294DC
:102BD00080EFF822DD2369F0D13049F1112391F122
:102BE000002351F1F601858180FFA8CF8F70858386
:102BF00023C0112381F0011106C00E94671D8F2997
:102C00000E944415B3CF0130C1F70E94671D8F2980
:102C10000E946D1DABCF011106C00E94761D8F2D45
:102C20000E944B15A3CF013009F4A0CFF6CF11239A
:102C300029F0063008F09ACF8F2DE2CF053008F04A
:102C400095CFEDCF002359F3D93309F015C1FFEF2C
:102C500027EE33E0F15020403040E1F700C00000A3
:102C60008D2F0E94011582CF8C2F869586958370BB
:102C700069F0813009F07ACF8D2F9C2F937011115C
:102C800002C090E080E00E94861370CF8D2F9C2FB1
:102C90009370111102C090E080E00E94701366CF23
:102CA0008C2F837009F041C0111160CF4D2F4295D8
:102CB00046954770440F440F0D2F0F7010E030E021
:102CC00020E0042E04C0000F111F221F331F0A949E
:102CD000D2F760E070E0CB01D4FF0FC06FE070E08E
:102CE00080E090E004C0660F771F881F991F4A9507
:102CF000D2F76095709580959095C695C695C370EE
:102D0000602B712B822B932BC23049F058F4C130C9
:102D100019F00E945E1B2ACF0E944C1B27CF0E94F5
:102D2000701B24CF0E944A1B21CF8695112311F0DE
:102D30008C2F8170882309F419CF4D2F4295469529
:102D40004770440F440F0D2F0F7010E030E020E06B
:102D5000042E04C0000F111F221F331F0A94D2F744
:102D600060E070E0CB01D4FF0FC06FE070E080E066
:102D700090E004C0660F771F881F991F4A95D2F70D
:102D80006095709580959095C695C695C370602B9B
:102D9000712B822B932BC23049F058F4C13019F0BB
:102DA0000E94231CE3CE0E94111CE0CE0E94351C21
:102DB000DDCE0E94861BDACECF70112329F08C2F36
:102DC0000E94AC1B8D2F1CCF8D2F0E944B158C2F7A
:102DD0000E94CD1BCBCED23F89F160F4D03FC9F029
:102DE000D13F29F1112309F442C00111A7CE8C2F44
:102DF0008F7121C0D33F39F1D43FA1F7112369F17D
:102E0000CF718C2F0E94AC1B63E08C2F0E94B61DEB
:102E1000ADCE112341F0053008F0A8CE8C2F8F7174
:102E20000E94F01BA3CE063008F0A0CEF7CF8C2F67
:102E30008F71112369F20E94AC1B98CE8C2F8F7179
:102E40001123C9F3C5CF112329F08C2F8F710E9454
:102E5000971B8CCE0E94921B89CE81E00E94CB1DD5
:102E6000023008F483CE82E00E94CB1D7FCE011198
:102E7000EBCE8C2F8F71ACCF8FEF99EFE0E08150CC
:102E80009040E040E1F7EACE4C2F4F706D2FC60125
:102E90000E94DC050E94C21A69CE4C2F4F706D2F24
:102EA000C6010E94DF0562CEDF91CF911F910F9185
:102EB000FF90EF90DF90CF90BF9008950F931F93F6
:102EC000CF93DF93EC01688179818A810E94EB1CAA
:102ED0008C010E94471C0E94491BB801CE01DF9162
:102EE000CF911F910F910C945215CF93DF93EC016A
:102EF0008B819C81892B29F08881998189238F3F3F
:102F000059F4DF91CF910895CE010E945E17CE0152
:102F1000DF91CF910C945005CE010E948405811160
:102F2000F3CF0E942D1D882361F38A81882349F302
:102F300082E0DF91CF910C94CB1D0E94541D0E9422
:102F4000641D0E94801D90E080E00E94701390E05C
:102F500080E00C9486130E941D1D0C949D170E9406
:102F6000441D0C94AB17E92FE295EF70E250EE3060
:102F700070F4F0E0E958F74D0C940328803F19F005
:102F800020F4883E20F481E00895843FE1F380E05E
:102F90000895883EC0F3813FD1F7F5CF93FB882792
:102FA00080F908950E94E11C0C94B317CF93DF932E
:102FB00000D000D00F92CDB7DEB70F900F900F90DA
:102FC0000F900F90DF91CF910895CF93DF9300D0B2
:102FD00000D000D0CDB7DEB726960FB6F894DEBF8E
:102FE0000FBECDBFDF91CF9108951F93CF93DF9395
:102FF000C091F10116E08091F2018C1304C0DF91C1
:10300000CF911F910895D0E01C9FF0011D9FF00DFE
:103010001124ED50FE4F4081518162817381848182
:1030200095810E94E5172196C770E5CF4091230254
:10303000509124026091250270912602809127020E
:10304000909128020C94E5171F93CF93DF93809102
:103050002802807FA9F480912502882389F080913D
:10306000F101C091F2016091230270912402A091BC
:103070002602B0912702D62FD72316E0C81304C02A
:10308000DF91CF911F91089590E0109711F0DF3FED
:1030900019F401968770F2CF189F9001199F300D97
:1030A0001124F901ED50FE4F41814713F2CF4081C9
:1030B0004613EFCF42814111ECCF438154814A1B2B
:1030C0005B0B483C510528F7809128028F70806186
:1030D00080932802F901E850FE4F80818F70806153
:1030E000808383E292E00E947517DF91CF911F9158
:1030F0000C94F517AF92BF92CF92DF92EF92FF92AE
:103100000F931F93CF93DF93CDB7DEB761970FB6C1
:10311000F894DEBF0FBECDBF8C0185E0F801DE0163
:103120001D9601900D928A95E1F7F8014081518139
:10313000E28083E2C82E82E0D82E60912602709150
:1031400027026115710509F461C190912302209154
:103150002402892F82238F3F09F458C1A380B480B1
:10316000F0902502F501E61BF70BFF2009F4FCC0E7
:1031700080912802382F307FE83CF10508F0B2C07A
:10318000311179C0FE2C251323C0941321C0E11006
:103190001FC08F708061809328020E941618C6019C
:1031A0000E94751780912802F80185838F2D619602
:1031B0000FB6F894DEBF0FBECDBFDF91CF911F9148
:1031C0000F91FF90EF90DF90CF90BF90AF90089558
:1031D000AB2829F0842F85238F3F09F033C180E08D
:1031E000F82FF170DF2E80FF3CC08091F10120911B
:1031F000F20136E0821315C04D875E878D859E856E
:103200000E94E11C292F22952F702230F0F02430EB
:1032100018F59F70F1F0F8019581907FD1F4D12CD1
:103220001EC090E0389FF001399FF00D1124ED5041
:10323000FE4F6181651306C06081641303C0628123
:103240006E110FC001968770D5CF9F7011F0882343
:1032500031F3805E883018F3C8010E947517FD2C89
:10326000A5CFEE2009F4A2CF80912802816080933F
:103270002802F12C9BCF251306C0941304C0F8013B
:10328000EE2009F48DC04D875E878D859E850E9456
:10329000D217882319F1EE2009F18091280280329B
:1032A00070F0209123023091240238872F831986F1
:1032B000BB86AA868C87CE0107960E94751786E08A
:1032C000F801A3E2B2E001900D928A95E1F70E9425
:1032D00024180E941618FF24F39468CFC8010E9496
:1032E0007517F9CF311113C07A2DB98AA88A6E2DBE
:1032F00089890E94D61783E292E00E94751786E0C2
:10330000F60111928A95E9F70E941618B2CF25139B
:103310000FC094130DC0E1100BC0F8018583C801E4
:103320000E94751786E0F60111928A95E9F73ECF63
:103330004D875E878D859E850E94D217882371F206
:10334000EE2061F280912802803208F4B8CF2091FB
:103350002302309124023A8329831B82BD82AC82EE
:103360008E83CE010196A9CFE83CF10508F041C05B
:10337000FE2CEE2009F4B2CF25132AC0941328C0E6
:103380008091280280FD1BC0982F907FC1F0F8012A
:103390008583903F31F0982F907F905F8F70892BBD
:1033A0008583C8010E94751786E0F801A3E2B2E0A8
:1033B00001900D928A95E1F70E941618F7CE86E0EB
:1033C000F801A3E2B2E001900D928A95E1F7EECE0A
:1033D0004D875E878D859E850E94D21781116FCFA4
:1033E00080912802816080932802C8010E9475178D
:1033F000DDCE7A2DB98AA88A6E2D89890E94D617CA
:1034000086E0F60111928A95E9F7D6CFEE2009F40D
:1034100065CF4D875E878D859E850E94D217F82ED9
:10342000882309F45BCF86E0F801A3E2B2E00190C3
:103430000D928A95E1F783E292E00E94B6140E9411
:103440002418BACF81E08E25CBCE88EC90E0089589
:103450001F93CF93DF93CDB7DEB72C970FB6F894B9
:10346000DEBF0FBECDBF4F83588769877A878B87B2
:103470009C87CE0107960E947A18882369F08A8576
:103480009B85892B39F04F815885842F85238F3F69
:1034900009F071C016E05FC086E0FE013796DE01DC
:1034A000119601900D928A95E1F78A859B85892B6B
:1034B00089F38F81988589238F3F61F32091F201F1
:1034C00030E0C9010196877099274091F1014817B2
:1034D000190671F40E94AF171092F2011092F101D7
:1034E00086E0E3E2F2E0DF011D928A95E9F7D2CFB0
:1034F00096E0929FD001939FB00D1124AD50BE4F26
:10350000FE01319601900D929A95E1F78093F201B8
:103510000E94F517BFCF819FC00111248D509E4F8F
:103520000E947A188823E9F0E091F1011E9FF001D2
:103530001124ED50FE4F408151816281738184815D
:1035400095810E94E5178091F10190E001968770C6
:1035500099278093F1018091F1019091F2018913F3
:10356000DACF2C960FB6F894DEBF0FBECDBFDF9139
:10357000CF911F91089569857A858B859C850E94DE
:10358000E51788CFEF92FF920F931F93CF93DF93AE
:103590008C01892B81F0F12CEE24E394E801219633
:1035A000F8018491843770F4843008F05FC0813072
:1035B000B1F08230A1F1DF91CF911F910F91FF9077
:1035C000EF900895853709F44CC008F43DC09CE79E
:1035D000980F903780F78F770E94011549C00E5FD2
:1035E0001F4FFE01849190E2980F983060F487702D
:1035F000FE2D01C0FF0F8A95EAF78F2F0E94571DFD
:103600000E94801D02C00E94BB148F2D815030F299
:10361000EFE9FFE03197F1F700C00000F7CF0E5F50
:103620001F4FFE01849190E2980F983050F48770FC
:10363000FE2D01C0FF0F8A95EAF78F2F0E945D1DB6
:10364000DFCF0E940115E1CF0E5F1F4FFE01C49135
:10365000C150D8F28FE99FE00197F1F700C0000058
:10366000F7CF0E5F1F4FFE01F490CFCF0E94BB1427
:103670008E01CBCF08950C943A1B0E943B1B6093A4
:1036800041027093420280934302909344020C944F
:103690009D1708950C943D1B0F931F9300914102B9
:1036A000109142022091430230914402602B712B11
:1036B000822B932B1F910F910C943D1B0F931F9303
:1036C0000091410210914202209143023091440244
:1036D00060237123822393231F910F910C943D1B30
:1036E0000F931F93009141021091420220914302D7
:1036F0003091440260277127822793271F910F91F1
:103700000C943D1B0C943A1B0C94821B0E94841B4E
:1037100060933D0270933E0280933F02909340027B
:103720000C949D1760E070E0CB010C94861B0F9306
:103730001F9341E050E060E070E08A019B0104C00B
:10374000000F111F221F331F8A95D2F7C901B8013C
:103750001F910F910C94861B0F931F9341E050E033
:1037600060E070E004C0440F551F661F771F8A9504
:10377000D2F780913D0290913E02A0913F02B0911C
:1037800040028A019B01082B192B2A2B3B2BC901D4
:10379000B8011F910F910C94861B0F931F9341E06A
:1037A00050E060E070E004C0440F551F661F771FB3
:1037B0008A95D2F7CB01BA01609570958095909566
:1037C00000913D0210913E0220913F023091400253
:1037D00060237123822393231F910F910C94861BE6
:1037E0000F931F9341E050E060E070E004C0440F8D
:1037F000551F661F771F8A95D2F780913D029091E1
:103800003E02A0913F02B09140028A019B0108272D
:1038100019272A273B27C901B8011F910F910C9442
:10382000861B0F931F9300913D0210913E02209141
:103830003F0230914002602B712B822B932B1F9102
:103840000F910C94861B0F931F9300913D021091D2
:103850003E0220913F023091400260237123822377
:1038600093231F910F910C94861B0F931F9300912C
:103870003D0210913E0220913F02309140026027AC
:103880007127822793271F910F910C94861B08950F
:10389000E92FEE0FEE0F9E0F890F982F977041E0E2
:1038A00001C0440F9A95EAF786958695869595E02E
:1038B000899FF0011124E75DFD4F30E020E070E0CA
:1038C0005191DF011197CB01022E02C09695879589
:1038D0000A94E2F7817081958527842385278C934C
:1038E0002F5F3F4F2530310559F70895E92FEE0F2F
:1038F000EE0F9E0F890F982F977086958695869567
:1039000025E0829FF0011124E75DFD4F50E040E08B
:1039100080E0219130E0092E02C0369527950A9467
:10392000E2F721703327042E01C0220F0A94EAF730
:10393000822B4F5F5F4F4530510559F70895BF9275
:10394000CF92DF92EF92FF920F931F93CF93DF936B
:103950008C01C0903D02D0903E02E0903F02F0907A
:1039600040028091410290914202A0914302B091A5
:103970004402C82AD92AEA2AFB2ACFE1D0E0BC2E89
:10398000D701C6010C2E04C0B695A79597958795CB
:103990000A94D2F780FD0EC0219788F7B12C8B2DA9
:1039A000DF91CF911F910F91FF90EF90DF90CF901B
:1039B000BF900895B8018C2F0E94FC05019761F318
:1039C000EECFCF93DF93EC010E949F1CBE01DF91ED
:1039D000CF910C94FC051F93CF93DF93EB01909153
:1039E000F001992331F0CB01DF91CF911F910C941D
:1039F000E11C882379F0CB010E949F1C182F682FAF
:103A0000CE010E94481CBE01812FDF91CF911F91F2
:103A10000C94FC05CB010E94761C182FF4CF682F64
:103A200080910C0190910D010C945A1F682F809188
:103A30000C0190910D010C94651F80910C019091E7
:103A40000D010C94701F8091450285958595859593
:103A5000089580914502877008959091450297706E
:103A600081E009F480E008958091690208959091C1
:103A70006902892B8093690208958095909169026B
:103A80009823909369020895109269020895909185
:103A90006802892B8093680208958095909168024E
:103AA0009823909368020895109268020895909167
:103AB0006702892B80936702089580959091670231
:103AC0009823909367020895109267020895809159
:103AD0004602089508950C946A1D90914602981725
:103AE00021F0809346020C946B1D0895809146024C
:103AF000882329F01092460280E00C946B1D0895F3
:103B0000E0910C01F0910D01809169028083E091B8
:103B10000C01F0910D01808190916802892B8083C6
:103B2000E0910C01F0910D01808190916702892B49
:103B3000808390914602992381F0E0910C01F091ED
:103B40000D018081892B808380910C0190910D0162
:103B50000E94A41E81110E94761D80910C019091FB
:103B60000D010C94151308950C94B31D98E0899FD2
:103B700090011124622B609345020E94AC1B80913E
:103B800045028595859585950C94B41D1092450246
:103B900080E00C94B41D9091450280958923809318
:103BA0004502282F277071F4282F082E000C330BA4
:103BB0009217130639F08595859585950E94CD1B42
:103BC0000C94C61D08959093AF018093AE010895A3
:103BD000829590E09C01220F331F220F331F2C7C13
:103BE00095958795959587958373282B30E0C90126
:103BF000880F991F8A7A359527952575822B089508
:103C000090E080E00E94172821E08C3E9E4F09F052
:103C100020E0822F089582E090E00C94092883E050
:103C200090E00C940928CF9384E090E00E9409284A
:103C3000C82F81E290E00E940928982F8C2FCF9105
:103C40000895CF93C92F682F84E090E00E941D282B
:103C50006C2F81E290E0CF910C941D28AB01BC0148
:103C60008FE090E00C942F28AB01BC0183E190E041
:103C70000C942F2860E070E0CB010C94341E60E0BF
:103C800070E0CB010E942E1E0C943A1E6CEE7EEF6B
:103C900090E080E00E943B2860E082E090E00E949B
:103CA0001D2860E083E090E00E941D2810924102F0
:103CB00010924202109243021092440260E084E0AB
:103CC00090E00E941D2860E081E290E00E941D28A3
:103CD00060E085E090E00E941D2860E086E090E0D2
:103CE0000E941D286FEF87E090E00E941D2840E0B1
:103CF00050E0BA0188E090E00E942F2860E08DE05B
:103D000090E00E941D2840E050E0BA0188E190E078
:103D10000E942F2860E087E190E00E941D2840E08B
:103D200050E0BA018CE190E00E942F2860E080E230
:103D300090E00E941D280C943F1E0C94461E682F94
:103D40008EE090E00C941D28FC01329680911801C1
:103D5000882321F08091C2049EE187FF96E080E0F5
:103D6000915008F4089521912223D1F38F5FF8CF69
:103D7000662301F1209118012223F1F02091C20461
:103D800027FF1AC0462F4695469546954E3190F42A
:103D9000677021E030E002C0220F331F6A95E2F71E
:103DA000840F911DFC01828190E02823392381E05A
:103DB000232B69F480E00895FC0132960896219146
:103DC000261721F0E817F907D1F7F4CF81E008951D
:103DD0009C01FC0132969FEF80E04191461751F023
:103DE0009F3F19F4411101C0982F8F5F8630A9F7CA
:103DF0009F3F09F40895290F311D97FD3A95F90168
:103E000062830895FC01329608962191261303C01F
:103E1000DF0111971C92E817F907B9F70895E62F0B
:103E2000E695E695E695EE3170F4E80FF92FF11D71
:103E3000677021E030E001C0220F6A95EAF78281C5
:103E4000822B8283089580916A0280FF0CC01F92AA
:103E50006F938FE696E09F938F930E9402050F90D9
:103E60000F900F900F900895E62FE695E695E69552
:103E7000EE3178F4E80FF92FF11D677021E030E0A2
:103E800001C0220F6A95EAF72095828128232283B8
:103E9000089580916A0280FF0CC01F926F9381E5A4
:103EA00096E09F938F930E9402050F900F900F90C2
:103EB0000F90089520911801222329F02091C20427
:103EC00027FD0C940F1F0C94E81E2091180122234B
:103ED00029F02091C20427FD0C94341F0C94021F7A
:103EE000FC01329680911801882351F08091C20420
:103EF00087FF06C08EE1DF011D928A95E9F70895DC
:103F000086E0F9CF089508950C94831F0E94841FC2
:103F10008091C804843049F110926B0288E190E0EE
:103F200020E40FB6F894A895809360000FBE20930C
:103F3000600080E00E946C050E94841F83B7817F2F
:103F4000846083BF83B7816083BF7894889583B78B
:103F50008E7F83BF0FB6F894A8958091600088612A
:103F600080936000109260000FBE08950895CF9373
:103F70000E94821F0E948C080E94B61FC0E08C2FF6
:103F80000E94E807811105C0CF5FC530C1F7CF910E
:103F9000089581E0FCCF08950C94CB1F0E94AF17C9
:103FA0000E9409130E946C050C94CC1F1F921FB62F
:103FB0001F9211248F939F93AF93BF9380916B02B5
:103FC000811113C08091BE049091BF04A091C004E0
:103FD000B091C1044196A11DB11D8093BE04909380
:103FE000BF04A093C004B093C104BF91AF919F914F
:103FF0008F911F901FBE1F90189582E084BD93E0A3
:1040000095BD9AEF97BD80936E0008952FB7F894F1
:104010008091BE049091BF04A091C004B091C104EE
:104020002FBF08952FB7F8946091BE047091BF041C
:104030008091C0049091C1042FBF08959C014FB797
:10404000F8948091BE049091BF04A091C004B091F7
:10405000C1044FBF821B930B089578941F921FB623
:104060001F9211248F939F93AF93BF938091BE04AF
:104070009091BF04A091C004B091C1040196A11D0C
:10408000B11D8093BE049093BF04A093C004B0936D
:10409000C104BF91AF919F918F911F901FBE1F9040
:1040A000189587E797E7909301088093000888E1C7
:1040B0009AE00FB6F894A895809360000FBE909395
:1040C0006000FFCF0E94001E811102C00E949D1E51
:1040D0000E940B1E80936A020E94131E9093C304D9
:1040E0008093C2040E940F1E682F70E090E080E071
:1040F0000E944A1B60913D0270913E0280913F02F6
:10410000909140020C94841B80918F020895089531
:104110009FB7F89410926E029FBF9091C80494309C
:1041200009F048C02091E9002F703091EC00932FE6
:10413000917030FD90E8922B23E02093E9002091CC
:10414000EB0020FF34C02091EE0027FF30C020910B
:104150006C02222321F02091E80025FF28C0109254
:104160006C0226E03091E80035FF14C08093F10026
:104170008091E80085FD27C08091E80080FFFCCF9A
:104180008091E8008E778093E8009F709093E9001B
:1041900080E008953091C804343049F43091EB0048
:1041A00035FD05C0215041F481E080936C029F7081
:1041B0009093E9008FEF0895EFE9FFE03197F1F771
:1041C00000C00000CFCF8FB7F89421E020936E029B
:1041D0008FBFDBCFCF93DF9300D00F92CDB7DEB789
:1041E0009091C804943019F589837B836A8382E0B7
:1041F0008093E9008FEF9091E800815095FD06C013
:1042000095ED9A95F1F700008111F5CF8091E800C6
:1042100085FF0DC050E040E063E070E0CE01019604
:104220000E9453238091E8008E778093E8000F90DE
:104230000F900F90DF91CF910895BC0184E00C9412
:10424000EA20BC0183E00C94EA20CF93DF93EC01D9
:10425000809118018823B1F18091C20487FF32C098
:1042600060E282E08093E9008FEF9091E800815056
:1042700095FD06C095ED9A95F1F700008111F5CFF7
:104280008091E80085FF1BC08091180170E050E02C
:1042900040E0811104C050E040E068E070E0CE01F1
:1042A0000E9453238091E8008E778093E80080E29B
:1042B000FE01AFE6B2E001900D928A95E1F7DF9141
:1042C000CF91089568E081E0CDCF82EB96E00E9427
:1042D00069048091C704811109C00E94E3240E94EF
:1042E00040258091E20084608093E20008958EEA88
:1042F00096E00E9469041092C70408958AEA96E045
:104300000C94690486EA96E00C94690482EA96E0CB
:104310000E9469040C94CE1F20916D022F5F822FA2
:1043200062E30E94E327992319F020936D02089518
:1043300010926D0280916E028823F1F08091C80482
:104340008430C1F49091E9009F702091EC00822F9D
:10435000817020FD80E8892B93E09093E900909193
:10436000EB0090FF04C09091EE0097FD08C08F70A5
:104370008093E90010926E0208951092F1009091DE
:10438000E80095FDFACF9091E80090FFF0CF909172
:10439000E8009E779093E800EACF42E061EC81E08C
:1043A0000E945F2442E261EC82E00E945F2442E2CC
:1043B00061EC83E00C945F248091CA04833009F49B
:1043C0005FC030F48130C1F1823009F49BC00895A0
:1043D0008A3009F487C08B3009F46DC0893009F048
:1043E0004EC08091C904813209F049C08091CD044A
:1043F0009091CE04029708F042C08091E800877F38
:104400008093E8008091E80082FF35C09091F3002E
:104410008091F200029729F48091F1008B7F813026
:1044200021F48091F10080938F028091E8008B77D6
:104430008093E8000C9493248091C904813AF9F4A4
:104440008091E800877F8093E8008091CD0490916F
:10445000CE04892B61F460E28FE692E070E00E9466
:10446000A2238091E8008B778093E800089560E0B4
:1044700090E080E0F3CF8091C8048111C3CF08950C
:104480008091C904813AD9F78091CD049091CE04EE
:10449000892BA9F78091E800877F8093E8008091BD
:1044A000E80080FFFCCF809118018093F10080919B
:1044B000E8008E77BDCF8091C904813201F78091E9
:1044C000CD049091CE04892BD1F68091E800877FAE
:1044D0008093E8000E9493248091CB04809318017C
:1044E0000C94AF178091C904813249F68091E8009D
:1044F000877F8093E8000E9493248091CC0480936E
:10450000900208958091C904813A09F0B8CF809152
:10451000E800877F8093E8008091E80080FFFCCF6F
:1045200080919002C2CF84B7877F84BF0FB6F89482
:10453000A89580916000886180936000109260006F
:104540000FBE80E890E00FB6F894809361009093DE
:1045500061000FBE0E94AA130E94E3240E9440251E
:104560008091E20084608093E20088E890E20E94FB
:10457000E31D78940E94C8270E94B4138EE091E056
:104580000E94041381E996E00E9469048091C804A6
:10459000853019F00E94EB13F9CF8DE896E00E9468
:1045A00069040E94861F8091C604882379F30E94C3
:1045B000B71F882359F30E943D23E8CF0C94E022D3
:1045C000292F33272330310521F168F421303105BB
:1045D00009F449C02230310509F44AC090E080E076
:1045E00030E020E029C02132310581F1223231054D
:1045F000A9F76330710590F7FB01EE0FFF1FEE5531
:10460000FE4F2081318161567E4FFB01808190E019
:1046100013C099278130910599F0009741F08230BD
:10462000910589F00397D1F6E6EBF6E002C0E8EEDB
:10463000F6E0849190E09F01FA0131832083089590
:10464000E2EDF6E0F6CFECEBF6E0F3CF6330710588
:1046500028F6660F771FFB01E855FE4F2081318158
:1046600089E090E0E9CF82E190E027E437E0E4CF11
:104670008BE590E02CEE36E0DFCF80E189BD82E172
:1046800089BD09B400FEFDCF8091D8008F7D809355
:10469000D8008091E00082608093E0008091E0008B
:1046A00081FDFCCF0895AF92BF92CF92DF92FF922F
:1046B0000F931F93CF93DF936C01EB018A010E944C
:1046C000B224F82E811123C00115110539F0F8012B
:1046D00080819181C81BD90BC80ED91EB12CA12C89
:1046E0002097A9F08091E80085FD22C08091E80024
:1046F0008E778093E80001151105A1F0F801808103
:104700009181A80EB91EB182A08285E0F82E8F2D6E
:10471000DF91CF911F910F91FF90DF90CF90BF90CD
:10472000AF9008950E94B2248823D1F2F82EEFCFE3
:10473000F60181916F018093F1002197FFEFAF1A8D
:10474000BF0ACECFFC018091CF049091D004861790
:104750009707A0F06115710529F49091E8009E7704
:104760009093E80090E06115710551F4911108C033
:104770008091E80082FF34C080E00895BC01F2CF50
:104780008091C8048823C1F18530C1F18091E8008F
:1047900083FD30C08091E80082FDEACF8091E8007F
:1047A00080FFE1CF8091F3002091F200382F611556
:1047B000710519F02830310558F091E028303105A5
:1047C00009F090E02091E8002E772093E800CBCF0D
:1047D00081918093F100615071092F5F3F4FE7CFC6
:1047E0008091C804882341F0853041F08091E80031
:1047F00083FFBECF81E0089582E0089583E00895AD
:10480000FC018091CF049091D00486179707A0F007
:104810006115710529F48091E8008E778093E80096
:1048200090E06115710551F4911108C08091E80084
:1048300082FF35C080E00895BC01F2CF8091C804AA
:104840008823C9F18530C9F18091E80083FD31C02A
:104850008091E80082FDEACF8091E80080FFE1CFFF
:104860008091F3002091F200382F6115710519F045
:104870002830310558F091E02830310509F090E0FA
:104880008091E8008E778093E800CBCF849180936D
:10489000F1003196615071092F5F3F4FE6CF809153
:1048A000C804882341F0853041F08091E80083FFFF
:1048B000BDCF81E0089582E0089583E00895982FA8
:1048C000973028F08F708093E90081E008959093ED
:1048D000E900242F762F50E0981731F07091EC000A
:1048E0002091ED005091F00021FD02C09F5FE8CFC4
:1048F0003091EB003E7F3093EB003091ED003D7F37
:104900003093ED003091EB0031603093EB00709309
:10491000EC002093ED005093F0002091EE0027FD75
:10492000E5CF80E008958091C90487FF13C080918E
:10493000E80082FF06C08091E8008B778093E80052
:1049400004C08091C8048111F2CF08958091C804F9
:104950008823D9F38091E80080FFF8CF8091E800A8
:104960008E77ECCF2091E4003091E50095E6A90127
:104970002091EC00822F817020FF06C08091E8001A
:1049800080FF06C080E008952091E80022FD1AC053
:104990008091C804882389F0853089F08091EB00EC
:1049A00085FD0FC02091E4003091E50042175307C8
:1049B000F9F29150E1F684E0089582E0089583E0F1
:1049C000089581E008950E9451250E945925E0EE46
:1049D000F0E0808181608083E8EDF0E080818F7776
:1049E000808319BCA7EDB0E08C918E7F8C93808181
:1049F0008F7E80831092C70408950F931F93CF93E7
:104A0000DF930E9451250E945925C8EDD0E088818E
:104A10008F77888388818068888388818F7D888369
:104A200019BC1092C8041092C4041092C6041092CB
:104A3000C50400EE10E0F80180818B7F80838881BF
:104A40008160888342E060E080E00E945F24E1EEC4
:104A5000F0E080818E7F8083E2EEF0E080818160F3
:104A60008083808188608083F80180818E7F80834D
:104A7000888180618883DF91CF911F910F91089584
:104A8000E8EDF0E080818F7E8083E7EDF0E08081CB
:104A90008160808384E082BF81E08093C7040C94AE
:104AA000FD24E8EDF0E080818E7F80831092E200AB
:104AB00008951092DA001092E10008951F920F926B
:104AC0000FB60F9211242F933F934F935F936F93E1
:104AD0007F938F939F93AF93BF93EF93FF938091B7
:104AE000E10082FF0BC08091E20082FF07C080914D
:104AF000E1008B7F8093E1000E948C218091DA009D
:104B000080FF19C08091D80080FF15C08091DA0025
:104B10008E7F8093DA008091D90080FF96C080E17B
:104B200089BD82E189BD09B400FEFDCF81E080939B
:104B3000C8040E9465218091E10080FF19C0809126
:104B4000E20080FF15C08091E2008E7F8093E2003A
:104B50008091E20080618093E2008091D8008062C1
:104B60008093D80019BC85E08093C8040E948221FC
:104B70008091E10084FF2BC08091E20084FF27C078
:104B800080E189BD82E189BD89B5982F917080FF50
:104B9000FBCF8091D8008F7D8093D8008091E10079
:104BA0008F7E8093E1008091E2008F7E8093E2000F
:104BB0008091E20081608093E2008091C4048823A8
:104BC00009F449C084E08093C8040E948621809142
:104BD000E10083FF29C08091E20083FF25C080911E
:104BE000E100877F8093E10082E08093C804109207
:104BF000C4048091E1008E7F8093E1008091E20007
:104C00008E7F8093E2008091E20080618093E200D9
:104C100042E060E080E00E945F248091F0008860C4
:104C20008093F0000E947E21FF91EF91BF91AF91A0
:104C30009F918F917F916F915F914F913F912F91B4
:104C40000F900FBE0F901F90189519BC1092C804BA
:104C50000E94772170CF8091E30087FD93E09093CD
:104C6000C804B3CF1F920F920FB60F9211242F9347
:104C70003F934F935F936F937F938F939F93AF93E4
:104C8000BF93CF93DF93EF93FF93D091E900DF7051
:104C90008091EC00C82FC17080FDC0E81092E9003F
:104CA0008091F000877F8093F00078940E947626B0
:104CB0001092E9008091F00088608093F000CD2B85
:104CC000CF70C093E900FF91EF91DF91CF91BF9139
:104CD000AF919F918F917F916F915F914F913F9194
:104CE0002F910F900FBE0F901F9018951F93CF9389
:104CF000DF93CDB7DEB7AA970FB6F894DEBF0FBE2D
:104D0000CDBF89EC94E02091F100FC012193CF010B
:104D1000F4E0813D9F07B9F70E94DC218091E80013
:104D200083FF1EC18091C9049091CA049A3008F093
:104D300017C1E92FF0E0EB57F74D0C9403288038AA
:104D400099F0823809F00CC18091CD048F708730C2
:104D500008F006C18093E9008091EB0085FB88276D
:104D600080F91092E90006C08091C5049091C604B4
:104D7000911182609091E800977F9093E800809372
:104D8000F1001092F1008091E8008E77E5C0882351
:104D900009F4D3C0823009F0E3C08091CB048111C3
:104DA000D6C08091CD048F702FEF280F263008F0E9
:104DB000D7C08093E9002091EB0020FFC8C093305A
:104DC00031F48091EB0080628093EB00C0C0909141
:104DD000EB0090619093EB0021E030E001C0220FE6
:104DE0008A95EAF72093EA001092EA008091EB009E
:104DF0008860EACF8111B4C01091CB041F778091F5
:104E0000E3008078812B8093E3008091E800877F26
:104E10008093E8000E9493248091E80080FFFCCFFB
:104E20008091E30080688093E30082E0111183E0C9
:104E30008093C80495C08058823008F091C080915A
:104E4000CB049091CC048C3D23E09207A1F583E044
:104E50008A838AE289834FB7F894DE01139620E0B3
:104E60003EE051E2E32FF0E050935700E49120FF41
:104E700003C0E295EF703F5FEF708E2F90E0EA3055
:104E8000C0F0C7968D939D932F5F243159F74FBF84
:104E90008091E800877F8093E8006AE270E0CE01AD
:104EA00001960E94A2238091E8008B778093E8000E
:104EB00057C0C096E7CF6091CD047091CE04AE018B
:104EC0004F5F5F4F0E94DE22BC01892B09F448C06E
:104ED0009091E800977F9093E80089819A810E94E1
:104EE0000024E1CF8038E1F58091E800877F80934E
:104EF000E8008091C4048093F10045CF811130C057
:104F00009091CB04923060F58091E800877F809388
:104F1000E8009093C4040E9493248091C4048823E1
:104F200011F084E005C08091E30087FDFACF81E0B5
:104F30008093C8040E94CD2113C08091CB0481309E
:104F400079F481E0933009F080E08093C6041092F8
:104F5000E9008091E800877F8093E8000E94932415
:104F60008091E80083FF0AC08091E800877F8093EA
:104F7000E8008091EB0080628093EB00AA960FB668
:104F8000F894DEBF0FBECDBFDF91CF911F91089582
:104F9000CF938091C8048823A1F0C091E900CF701D
:104FA0009091EC00892F817090FD80E8C82B1092C1
:104FB000E9008091E80083FD0E947626CF70C093BF
:104FC000E900CF910895991B79E004C0991F9617C5
:104FD00008F0961B881F7A95C9F780950895AA1B3B
:104FE000BB1B51E107C0AA1FBB1FA617B70710F0D4
:104FF000A61BB70B881F991F5A95A9F78095909506
:10500000BC01CD010895EE0FFF1F0590F491E02D36
:105010000994F999FECF92BD81BDF89A992780B580
:105020000895A6E1B0E044E050E00C944328A8E1E4
:10503000B0E042E050E00C944328262FF999FECFCF
:1050400092BD81BDF89A019700B4021639F01FBADB
:1050500020BD0FB6F894FA9AF99A0FBE08950396F8
:10506000272F0E941E280E941D28252F0E941E28DF
:10507000242F0C941E280196272F0E941E280C9482
:105080001D28DC01CB01FC01F999FECF06C0F2BD61
:10509000E1BDF89A319600B40D9241505040B8F7F6
:1050A0000895F894FFCFFE0C060D0D0D120D170D8F
:1050B0001C0D210D260D2B0D300D350D3A0D000D5B
:1050C000000D000D000D000D000D000D000D8915E7
:1050D0008915E115E1153416B615B615B615501635
:1050E000DC16EB16EB164417B615B6154D17BE17A2
:1050F000BE17C717C717C917C717C717C717BE17D0
:10510000BE17CE17C717C717CE179F26C726B027BB
:0E511000C726B027FA261B27B02772277E2756
:10511E0000080008080021007F22000347028420B7
:10512E002521872021211D2101E200E900EA00B599
:10513E0000B600B700CD008301CC008A0192019425
:10514E00012102230224022502260227022A02B38B
:10515E0000B4006F007000818283F73133323666FF
:10516E0097C63435000100FF0100010000FFFF006B
:10517E0000010001FF000008101818100800E200DE
:10518E00E900EA00B500B600B700CD008301CC00FF
:10519E008A01920194012102230224022502260291
:1051AE0027022A02B300B4006F0070008182834090
:0E51BE006D22E8077B075907FE06170730072A
:00000001FF
